:1000000040040020C1010008BF0C0008ED0B0008EF
:10001000BD0C0008CD0200086D0D000800000000B6
:10002000000000000000000000000000C30C0008F9
:10003000CF02000800000000C10C0008C50C000839
:10004000DB010008DB010008DB010008DB01000820
:10005000DB010008DB010008DB010008DB01000810
:10006000DB010008DB010008DB010008DB01000800
:10007000DB010008DB010008DB010008DB010008F0
:10008000DB010008DB010008DB010008DB010008E0
:10009000DB010008DB010008DB010008DB010008D0
:1000A000DB010008DB010008DB010008DB010008C0
:1000B000DB010008DB010008DB010008DB010008B0
:1000C000DB010008DB010008DB010008DB010008A0
:1000D000DB010008DB010008DB010008DB01000890
:1000E000DB010008DB010008DB010008DB01000880
:1000F000DB010008DB010008DB010008DB01000870
:10010000DB010008DB010008DB010008DB0100085F
:10011000DB010008DB010008DB010008DB0100084F
:10012000DB010008DB010008DB010008DB0100083F
:10013000DB010008DB010008DB010008DB0100082F
:10014000DB010008DB010008DB010008DB0100081F
:10015000DB010008DB010008DB010008DB0100080F
:10016000DB010008DB010008DB010008DB010008FF
:10017000DB010008DB010008DB01000800000000D3
:10018000DB010008DB010008DB010008DB010008DF
:10019000DB010008DB010008DB010008DB010008CF
:1001A000DB010008DB010008DB010008DFF80CD0F0
:1001B00000F07AF800480047AD0D00084004002028
:1001C0000648804706480047FEE7FEE7FEE7FEE7F1
:1001D000FEE7FEE7FEE7FEE7FEE7FEE7510D00085B
:1001E000AD0100082DE9F05F0546002092469B46D0
:1001F00088460646814640241BE02846414647463D
:10020000224600F041F853465A46C01A914110D395
:1002100011461846224600F028F82D1A67EB01080F
:100220004F4622460120002100F01FF817EB00097D
:100230004E41201EA4F10104DFDC484631462A4627
:100240004346BDE8F09FD2B201E000F8012B491E01
:10025000FBD270470022F6E710B513460A46044663
:100260001946FFF7F0FF204610BD202A04DB203A94
:1002700000FA02F1002070479140C2F1200320FAF9
:1002800003F3194390407047202A04DB203A21FAF7
:1002900002F00021704721FA02F3D040C2F120029F
:1002A0009140084319467047064C074D06E0E06848
:1002B00040F0010394E8070098471034AC42F6D3AD
:1002C000FFF778FFE80D0008080E0008FEE770470A
:1002D000002229B101291DD002291ED04FF44072FD
:1002E0000B2800D9001D0E490B6823F440730B60E6
:1002F0000B6813430B600A6822F0F8020A600A6870
:10030000022303EBC00002430A60086840F4803017
:10031000086070474FF48072E2E74FF40072DFE745
:10032000103C0240064A136823F4407313601368BC
:100330001360136843F001031360017070470000FD
:10034000103C0240094910B50C6824F440740C605C
:100350000C6844F440740C600C6844F001040C60B8
:100360000260BFF36F8F436010BD0000103C02407D
:10037000074A136823F440731360136843F48073CF
:100380001360136843F0010313600180704700009D
:10039000103C0240074A136823F44073136013684B
:1003A00043F400731360136843F0010313600160AA
:1003B00070470000103C02401C490868C2061C48F7
:1003C00005D5C26942F01002C26110220A600A68B3
:1003D000920605D5C26942F00802C26120220A6075
:1003E0000A68520605D5C26942F00402C261402281
:1003F0000A600A68120605D5C26942F00202C261AB
:1004000080220A600A68D20506D5C26942F001025C
:10041000C2614FF480720A600A68920705D5C2690A
:1004200042F02002C2610220086070470C3C02408A
:100430002000002070B5114904460020C86100F07A
:100440007FF806460E4D09E0601C07D024B100F08D
:1004500077F8801BA04201D9032070BD2868C00333
:10046000F2D42868C00701D001202860286810F461
:10047000F970F2D0FFF7A0FF012070BD200000202E
:100480000C3C02400348016841F00041016000203B
:1004900070470000103C02402DE9F0471B4E054616
:1004A0001446307E1F468946012808D00120307648
:1004B0004CF250384046FFF7BDFF18B114E002205F
:1004C000BDE8F0879DB1012D16D0022D19D022462E
:1004D0003B464846FFF736FF4046FFF7ABFF0C4967
:1004E0000A6822F001020A6000213176E8E7E1B2F1
:1004F0004846FFF717FFEFE7A1B24846FFF738FF7E
:10050000EAE721464846FFF745FFE5E720000020DF
:10051000103C0240074900200A68002A09DA054A0F
:10052000054B0C3A1360054B13600968002900DA8B
:1005300001207047103C024023016745AB89EFCD95
:100540000148806870470000100000200248816860
:100550000278114481607047100000200B4810B5EC
:10056000016841F400710160016841F4806101603B
:10057000016841F480710160032000F061F80020FF
:1005800000F006F800F024F8002010BD003C024006
:1005900070B50D4D04464FF47A712878B1FBF0F038
:1005A0000A490968B1FBF0F000F00CFB48B9102CC7
:1005B00007D200222146501E00F022F800206C6075
:1005C00070BD012070BD0000100000201C00002044
:1005D0000A4808B5016841F480410160006800F4F0
:1005E000804000900548001F016841F08051016083
:1005F000006800F08050009008BD000044380240C0
:10060000F0B40E4B1B680C46C3F30223C3F107057D
:10061000042D00D90425191D072901D2002300E06B
:10062000DB1E012606FA05F1491E214099409E4035
:10063000761E16403143F0BC00F099BB0CED00E093
:10064000064900F0070208684FF6FF03184040EA29
:100650000220034A10430860704700000CED00E0E0
:100660000000FA052DE9F8431748016841F0805170
:1006700001600068154F00F08050012600903E6434
:10068000FFF75EFF05464FF47A78114C05E000BF96
:10069000FFF756FF401B40450DD86068C003F7D5F3
:1006A0007E64FFF74DFF0546464607E0FFF748FF2B
:1006B000401BB04202D90320BDE8F8836068800384
:1006C000F4D50020F8E700004038024000000E4258
:1006D000007000402DE9F0470E46050065D0DFF8B8
:1006E0001481D8F80000F7B200F00F00B04207D232
:1006F00088F80070D8F8000000F00F00B04254D124
:1007000028683D4C810712D5400703D5206840F486
:10071000E05020602878000703D5206840F460404E
:1007200020602068A96820F0F00008432060287845
:10073000C0072DD0304968680839012812D0022836
:1007400013D0032811D00968890700292DDA216800
:1007500021F0030101432160FFF7F2FE814641F2DF
:10076000883A0EE009688903EFE709688901ECE738
:10077000FFF7E6FEA0EB0901514502D90320BDE8D1
:10078000F0872068696800F00C00B0EB810FEFD1B2
:10079000D8F80010404601F00F01B14207D90770A8
:1007A000006800F00F00B04201D00120E7E7287890
:1007B000400705D52068E96820F4E0500843206030
:1007C0002878000706D52068296920F4604040EAAF
:1007D000C100206000F018F82168084AC1F3031135
:1007E000515CC8400649086006480068FFF7D0FE23
:1007F0000020C4E7003C024008380240D80D000841
:100800001C00002014000020154810B5006810F0EE
:100810000C02144813D04110042A0FD0082A0ED11C
:100820000F4C241F2268236802F03F025B0207D5A9
:100830002068C0F38810A0FB010106E0084610BD47
:100840002168C1F38811A1FB00010023FFF7CAFC56
:100850002168C1F30141491C4900B0FBF1F010BD12
:10086000083802400024F4002DE9F84F04006ED04F
:100870002078DFF83C93C007A9F104054AD009F1BC
:1008800004000168C1F38101012908D00068C0F3A8
:10089000810002280AD1D9F80000400206D5286854
:1008A000800337D560680028E1D033E06068B0F598
:1008B000803F10D0B0F5A02F286810D020F48030F1
:1008C0002860286820F4802028606068A8B1FFF7BD
:1008D00037FE06460DE0286840F48030F4E740F427
:1008E00080202860F7E700BFFFF72AFE801B6428FE
:1008F00073D828688003F7D50CE0FFF721FE064681
:1009000005E000BFFFF71CFE801B6428F0D82868B4
:100910008003F7D42078DFF89C8280074FF0000A2C
:100920003ED5A348001D016811F00C0F08D00068E7
:10093000C0F3810002280BD1D9F80000400207D48F
:100940002868800716D5E068012800D112E02BE165
:10095000E068B8B10120C8F80000FFF7F1FD0646D5
:1009600005E000BFFFF7ECFD801B0228C0D8286817
:100970008007F7D52868216920F0F80040EAC10017
:1009800028600DE0C8F800A0FFF7DAFD064604E095
:10099000FFF7D6FD801B02281FD828688007F7D4F0
:1009A0002078000722D5824E83486169703671B184
:1009B00001210160FFF7C4FD074604E0FFF7C0FD19
:1009C000C01B022809D830688007F7D50EE0C0F8B0
:1009D00000A0FFF7B5FD074605E082E0FFF7B0FD98
:1009E000C01B02287DD830688007F7D420784007E4
:1009F00068D5DFF8BCB100270BF13C0BDBF8000039
:100A0000C0000BD4DBF8001041F08051CBF800108F
:100A1000DBF80000012700F080500090674E30683E
:100A2000C00510D4306840F480703060FFF788FD56
:100A3000009005E0FFF784FD0099401A022850D885
:100A40003068C005F6D55A4EA0686C3601280FD024
:100A50000528306810D020F001003060306820F0A8
:100A600004003060A068B8B1FFF76AFD00900FE0A5
:100A7000306840F00100F4E740F004003060F7E730
:100A8000FFF75EFD0099411A41F28830814266D835
:100A900030688007F4D50EE0FFF752FD009007E0C4
:100AA000FFF74EFD0099411A41F28830814256D835
:100AB00030688007F4D42FB1DBF8001021F08051AA
:100AC000CBF80010A069C8B33949091D0968C1F302
:100AD000810102294AD00228504607D0C8F8600098
:100AE00000E03CE0FFF72CFD04463BE04746C8F839
:100AF0006000FFF725FD064605E000BFFFF720FD7B
:100B0000801B02282BD828688001F7D4D4E907017C
:100B10000843A16A2A4A490802EB0141626A41EA94
:100B20008211084394F82C1040EA0161C9F80010C2
:100B300001203866FFF704FD044606E036E000BFFA
:100B4000FFF7FEFC001B022809D828688001F7D5B2
:100B50002CE000BFFFF7F4FC001B022802D90320A1
:100B6000BDE8F88F28688001F4D41FE00128F7D091
:100B7000D9F80000E26900F48001914214D1226AA0
:100B800000F03F0191420FD147F6C071626A014007
:100B9000914209D1A26A00F44031914204D1E16A44
:100BA00000F07060884201D00120D9E70020D7E72B
:100BB0000438024000004742800E47420070004067
:100BC0000000FFFF10B5401EB0F1807F01D301206F
:100BD00010BD4FF0E02460610F21601700F0C7F8EE
:100BE0000020A06107202061002010BDFEE700006A
:100BF000094808B5016841F080010160016801F011
:100C000080010091016841F001010160006800F07D
:100C10000100009008BD000030380240014A107009
:100C200051607047080000202DE9F041224D0F4629
:100C30009846696816460C18FFF76CFC0221287864
:100C4000FFF746FBFFF71EFCFFF764FC5FEA0800B6
:100C500005D0012810D0B8F1020F28D11AE00025E4
:100C600007E000237A5D21461846FFF715FC641C57
:100C70006D1CB542F5D31AE0002508E037F81520C1
:100C8000002321460120FFF707FCA41C6D1CB54280
:100C9000F4D30CE0002508E057F825200023214676
:100CA0000220FFF7F9FB241D6D1CB542F4D3BDE80B
:100CB000F041FFF7E7BB000008000020FEE77047A7
:100CC00070477047FFF742BC30B593B0302168469B
:100CD000FFF7C0FA14210CA8FFF7BCFA1A48002548
:100CE000016841F080510160006800F0805011906F
:100CF0001648016841F4404101600068022400F494
:100D00004040119001200090000401908001CDE945
:100D1000064008AA0420B42182E813000B9068461C
:100D2000FFF7A2FDFFF79EFC0CA90F2081E8310020
:100D30004FF4A0500F90E002109005210CA8FFF78F
:100D4000C9FC13B030BD00004038024000700040C4
:100D50000548016841F47001016003494FF00060EB
:100D6000803908607047000088ED00E0FEE7090761
:100D7000090E002804DB00F1E02080F80014704721
:100D800000F00F0000F1E02080F8141D704702E031
:100D900008C8121F08C1002AFAD170477047002006
:100DA00001E001C1121F002AFBD17047FFF7D6FBFB
:100DB000FFF78AFFFFF71CFF05490B20FFF72EFF07
:100DC0000023052203491846FFF72EFFFEE7000027
:100DD00000000E08000000200000000000000000DD
:100DE0000102030406070809080E0008000000209D
:100DF000200000008E0D0008280E000820000020B2
:100E0000200400009E0D000811223344550000000C
:100E100000000000000000000100000010000000C1
:080E2000000000000024F4000000000000000000B2
